{
  "_format": "hh-sol-artifact-1",
  "contractName": "Wallet",
  "sourceName": "contracts/Wallet.sol",
  "abi": [
    {
      "inputs": [
        {
          "internalType": "contract Coin",
          "name": "_coin",
          "type": "address"
        }
      ],
      "stateMutability": "nonpayable",
      "type": "constructor"
    },
    {
      "anonymous": false,
      "inputs": [
        {
          "indexed": true,
          "internalType": "address",
          "name": "user",
          "type": "address"
        },
        {
          "indexed": false,
          "internalType": "uint256",
          "name": "allowance",
          "type": "uint256"
        },
        {
          "indexed": false,
          "internalType": "uint256",
          "name": "timeLimit",
          "type": "uint256"
        }
      ],
      "name": "AllowanceRenewed",
      "type": "event"
    },
    {
      "anonymous": false,
      "inputs": [
        {
          "indexed": true,
          "internalType": "address",
          "name": "receiver",
          "type": "address"
        },
        {
          "indexed": false,
          "internalType": "uint256",
          "name": "amount",
          "type": "uint256"
        }
      ],
      "name": "CoinsSpent",
      "type": "event"
    },
    {
      "anonymous": false,
      "inputs": [
        {
          "indexed": true,
          "internalType": "address",
          "name": "previousOwner",
          "type": "address"
        },
        {
          "indexed": true,
          "internalType": "address",
          "name": "newOwner",
          "type": "address"
        }
      ],
      "name": "OwnershipTransferred",
      "type": "event"
    },
    {
      "inputs": [],
      "name": "coin",
      "outputs": [
        {
          "internalType": "contract Coin",
          "name": "",
          "type": "address"
        }
      ],
      "stateMutability": "view",
      "type": "function"
    },
    {
      "inputs": [],
      "name": "owner",
      "outputs": [
        {
          "internalType": "address",
          "name": "",
          "type": "address"
        }
      ],
      "stateMutability": "view",
      "type": "function"
    },
    {
      "inputs": [
        {
          "internalType": "address",
          "name": "_user",
          "type": "address"
        },
        {
          "internalType": "uint256",
          "name": "_allowance",
          "type": "uint256"
        },
        {
          "internalType": "uint256",
          "name": "_timeLimit",
          "type": "uint256"
        }
      ],
      "name": "renewAllowance",
      "outputs": [],
      "stateMutability": "nonpayable",
      "type": "function"
    },
    {
      "inputs": [],
      "name": "renounceOwnership",
      "outputs": [],
      "stateMutability": "nonpayable",
      "type": "function"
    },
    {
      "inputs": [
        {
          "internalType": "address",
          "name": "_receiver",
          "type": "address"
        },
        {
          "internalType": "uint256",
          "name": "_amount",
          "type": "uint256"
        }
      ],
      "name": "spendCoins",
      "outputs": [],
      "stateMutability": "nonpayable",
      "type": "function"
    },
    {
      "inputs": [
        {
          "internalType": "address",
          "name": "newOwner",
          "type": "address"
        }
      ],
      "name": "transferOwnership",
      "outputs": [],
      "stateMutability": "nonpayable",
      "type": "function"
    },
    {
      "inputs": [
        {
          "internalType": "address",
          "name": "",
          "type": "address"
        }
      ],
      "name": "users",
      "outputs": [
        {
          "internalType": "address",
          "name": "userAddress",
          "type": "address"
        },
        {
          "internalType": "uint256",
          "name": "allowance",
          "type": "uint256"
        },
        {
          "internalType": "uint256",
          "name": "validity",
          "type": "uint256"
        }
      ],
      "stateMutability": "view",
      "type": "function"
    }
  ],
  "bytecode": "0x60806040523480156200001157600080fd5b5060405162000f8038038062000f80833981810160405281019062000037919062000189565b620000576200004b620000a660201b60201c565b620000ae60201b60201c565b6001808190555080600260006101000a81548173ffffffffffffffffffffffffffffffffffffffff021916908373ffffffffffffffffffffffffffffffffffffffff1602179055505062000217565b600033905090565b60008060009054906101000a900473ffffffffffffffffffffffffffffffffffffffff169050816000806101000a81548173ffffffffffffffffffffffffffffffffffffffff021916908373ffffffffffffffffffffffffffffffffffffffff1602179055508173ffffffffffffffffffffffffffffffffffffffff168173ffffffffffffffffffffffffffffffffffffffff167f8be0079c531659141344cd1fd0a4f28419497f9722a3daafe3b4186f6b6457e060405160405180910390a35050565b6000815190506200018381620001fd565b92915050565b6000602082840312156200019c57600080fd5b6000620001ac8482850162000172565b91505092915050565b6000620001c282620001dd565b9050919050565b6000620001d682620001b5565b9050919050565b600073ffffffffffffffffffffffffffffffffffffffff82169050919050565b6200020881620001c9565b81146200021457600080fd5b50565b610d5980620002276000396000f3fe608060405234801561001057600080fd5b506004361061007d5760003560e01c80638da5cb5b1161005b5780638da5cb5b146100c6578063978d4e7e146100e4578063a87430ba14610100578063f2fde38b146101325761007d565b806311df999514610082578063260e67a7146100a0578063715018a6146100bc575b600080fd5b61008a61014e565b60405161009791906109ff565b60405180910390f35b6100ba60048036038101906100b59190610853565b610174565b005b6100c46102b0565b005b6100ce6102c4565b6040516100db9190610984565b60405180910390f35b6100fe60048036038101906100f99190610817565b6102ed565b005b61011a600480360381019061011591906107ee565b610597565b604051610129939291906109c8565b60405180910390f35b61014c600480360381019061014791906107ee565b6105e1565b005b600260009054906101000a900473ffffffffffffffffffffffffffffffffffffffff1681565b61017c610665565b6000814261018a9190610aef565b905060405180606001604052808573ffffffffffffffffffffffffffffffffffffffff16815260200184815260200182815250600360008673ffffffffffffffffffffffffffffffffffffffff1673ffffffffffffffffffffffffffffffffffffffff16815260200190815260200160002060008201518160000160006101000a81548173ffffffffffffffffffffffffffffffffffffffff021916908373ffffffffffffffffffffffffffffffffffffffff16021790555060208201518160010155604082015181600201559050508373ffffffffffffffffffffffffffffffffffffffff167f7b5d8b8c4a48ab3c4f698feadf9ec108f89b430c109781190da11151c6b6606784846040516102a2929190610ab5565b60405180910390a250505050565b6102b8610665565b6102c260006106e3565b565b60008060009054906101000a900473ffffffffffffffffffffffffffffffffffffffff16905090565b806000600360003373ffffffffffffffffffffffffffffffffffffffff1673ffffffffffffffffffffffffffffffffffffffff1681526020019081526020016000206040518060600160405290816000820160009054906101000a900473ffffffffffffffffffffffffffffffffffffffff1673ffffffffffffffffffffffffffffffffffffffff1673ffffffffffffffffffffffffffffffffffffffff16815260200160018201548152602001600282015481525050905080602001518211156103ed576040517f08c379a00000000000000000000000000000000000000000000000000000000081526004016103e490610a7a565b60405180910390fd5b6000600360003373ffffffffffffffffffffffffffffffffffffffff1673ffffffffffffffffffffffffffffffffffffffff16815260200190815260200160002090508060020154421115610477576040517f08c379a000000000000000000000000000000000000000000000000000000000815260040161046e90610a5a565b60405180910390fd5b8381600101600082825461048b9190610b45565b92505081905550600260009054906101000a900473ffffffffffffffffffffffffffffffffffffffff1673ffffffffffffffffffffffffffffffffffffffff1663a9059cbb86866040518363ffffffff1660e01b81526004016104ef92919061099f565b602060405180830381600087803b15801561050957600080fd5b505af115801561051d573d6000803e3d6000fd5b505050506040513d601f19601f8201168201806040525081019061054191906108a2565b508473ffffffffffffffffffffffffffffffffffffffff167f92c3d05f8ba31385c55d3263a9c7de7c1e17e7da9dba4b20246c3c0cf8df88c2856040516105889190610a9a565b60405180910390a25050505050565b60036020528060005260406000206000915090508060000160009054906101000a900473ffffffffffffffffffffffffffffffffffffffff16908060010154908060020154905083565b6105e9610665565b600073ffffffffffffffffffffffffffffffffffffffff168173ffffffffffffffffffffffffffffffffffffffff161415610659576040517f08c379a000000000000000000000000000000000000000000000000000000000815260040161065090610a1a565b60405180910390fd5b610662816106e3565b50565b61066d6107a7565b73ffffffffffffffffffffffffffffffffffffffff1661068b6102c4565b73ffffffffffffffffffffffffffffffffffffffff16146106e1576040517f08c379a00000000000000000000000000000000000000000000000000000000081526004016106d890610a3a565b60405180910390fd5b565b60008060009054906101000a900473ffffffffffffffffffffffffffffffffffffffff169050816000806101000a81548173ffffffffffffffffffffffffffffffffffffffff021916908373ffffffffffffffffffffffffffffffffffffffff1602179055508173ffffffffffffffffffffffffffffffffffffffff168173ffffffffffffffffffffffffffffffffffffffff167f8be0079c531659141344cd1fd0a4f28419497f9722a3daafe3b4186f6b6457e060405160405180910390a35050565b600033905090565b6000813590506107be81610cde565b92915050565b6000815190506107d381610cf5565b92915050565b6000813590506107e881610d0c565b92915050565b60006020828403121561080057600080fd5b600061080e848285016107af565b91505092915050565b6000806040838503121561082a57600080fd5b6000610838858286016107af565b9250506020610849858286016107d9565b9150509250929050565b60008060006060848603121561086857600080fd5b6000610876868287016107af565b9350506020610887868287016107d9565b9250506040610898868287016107d9565b9150509250925092565b6000602082840312156108b457600080fd5b60006108c2848285016107c4565b91505092915050565b6108d481610b79565b82525050565b6108e381610bc1565b82525050565b60006108f6602683610ade565b915061090182610c14565b604082019050919050565b6000610919602083610ade565b915061092482610c63565b602082019050919050565b600061093c601283610ade565b915061094782610c8c565b602082019050919050565b600061095f601a83610ade565b915061096a82610cb5565b602082019050919050565b61097e81610bb7565b82525050565b600060208201905061099960008301846108cb565b92915050565b60006040820190506109b460008301856108cb565b6109c16020830184610975565b9392505050565b60006060820190506109dd60008301866108cb565b6109ea6020830185610975565b6109f76040830184610975565b949350505050565b6000602082019050610a1460008301846108da565b92915050565b60006020820190508181036000830152610a33816108e9565b9050919050565b60006020820190508181036000830152610a538161090c565b9050919050565b60006020820190508181036000830152610a738161092f565b9050919050565b60006020820190508181036000830152610a9381610952565b9050919050565b6000602082019050610aaf6000830184610975565b92915050565b6000604082019050610aca6000830185610975565b610ad76020830184610975565b9392505050565b600082825260208201905092915050565b6000610afa82610bb7565b9150610b0583610bb7565b9250827fffffffffffffffffffffffffffffffffffffffffffffffffffffffffffffffff03821115610b3a57610b39610be5565b5b828201905092915050565b6000610b5082610bb7565b9150610b5b83610bb7565b925082821015610b6e57610b6d610be5565b5b828203905092915050565b6000610b8482610b97565b9050919050565b60008115159050919050565b600073ffffffffffffffffffffffffffffffffffffffff82169050919050565b6000819050919050565b6000610bcc82610bd3565b9050919050565b6000610bde82610b97565b9050919050565b7f4e487b7100000000000000000000000000000000000000000000000000000000600052601160045260246000fd5b7f4f776e61626c653a206e6577206f776e657220697320746865207a65726f206160008201527f6464726573730000000000000000000000000000000000000000000000000000602082015250565b7f4f776e61626c653a2063616c6c6572206973206e6f7420746865206f776e6572600082015250565b7f56616c6964697479206578706972656421210000000000000000000000000000600082015250565b7f416c6c6f77616e6365206e6f742073756666696369656e742121000000000000600082015250565b610ce781610b79565b8114610cf257600080fd5b50565b610cfe81610b8b565b8114610d0957600080fd5b50565b610d1581610bb7565b8114610d2057600080fd5b5056fea264697066735822122027b9d2ddc95e8d314d76d59c5f7c993c6912c17c616c5c88f58b80aa9cf704fa64736f6c63430008040033",
  "linkReferences": {},
  "deployedLinkReferences": {}
}