{
    "_format": "hh-sol-artifact-1",
    "contractName": "Wallet",
    "sourceName": "contracts/Wallet.sol",
    "abi": [
        {
            "inputs": [
                {
                    "internalType": "contract Coin",
                    "name": "_coin",
                    "type": "address"
                }
            ],
            "stateMutability": "nonpayable",
            "type": "constructor"
        },
        {
            "anonymous": false,
            "inputs": [
                {
                    "indexed": true,
                    "internalType": "address",
                    "name": "previousOwner",
                    "type": "address"
                },
                {
                    "indexed": true,
                    "internalType": "address",
                    "name": "newOwner",
                    "type": "address"
                }
            ],
            "name": "OwnershipTransferred",
            "type": "event"
        },
        {
            "inputs": [
                {
                    "internalType": "address",
                    "name": "",
                    "type": "address"
                }
            ],
            "name": "allowance",
            "outputs": [
                {
                    "internalType": "uint256",
                    "name": "",
                    "type": "uint256"
                }
            ],
            "stateMutability": "view",
            "type": "function"
        },
        {
            "inputs": [],
            "name": "coin",
            "outputs": [
                {
                    "internalType": "contract Coin",
                    "name": "",
                    "type": "address"
                }
            ],
            "stateMutability": "view",
            "type": "function"
        },
        {
            "inputs": [],
            "name": "owner",
            "outputs": [
                {
                    "internalType": "address",
                    "name": "",
                    "type": "address"
                }
            ],
            "stateMutability": "view",
            "type": "function"
        },
        {
            "inputs": [
                {
                    "internalType": "address",
                    "name": "_user",
                    "type": "address"
                },
                {
                    "internalType": "uint256",
                    "name": "_allowance",
                    "type": "uint256"
                }
            ],
            "name": "renewAllowance",
            "outputs": [],
            "stateMutability": "nonpayable",
            "type": "function"
        },
        {
            "inputs": [],
            "name": "renounceOwnership",
            "outputs": [],
            "stateMutability": "nonpayable",
            "type": "function"
        },
        {
            "inputs": [
                {
                    "internalType": "address",
                    "name": "_receiver",
                    "type": "address"
                },
                {
                    "internalType": "uint256",
                    "name": "_amount",
                    "type": "uint256"
                }
            ],
            "name": "spendCoins",
            "outputs": [],
            "stateMutability": "nonpayable",
            "type": "function"
        },
        {
            "inputs": [
                {
                    "internalType": "address",
                    "name": "newOwner",
                    "type": "address"
                }
            ],
            "name": "transferOwnership",
            "outputs": [],
            "stateMutability": "nonpayable",
            "type": "function"
        }
    ],
    "bytecode": "0x608060405234801561001057600080fd5b50604051610bb3380380610bb383398181016040528101906100329190610176565b61004e61004361009560201b60201c565b61009d60201b60201c565b80600160006101000a81548173ffffffffffffffffffffffffffffffffffffffff021916908373ffffffffffffffffffffffffffffffffffffffff160217905550506101fa565b600033905090565b60008060009054906101000a900473ffffffffffffffffffffffffffffffffffffffff169050816000806101000a81548173ffffffffffffffffffffffffffffffffffffffff021916908373ffffffffffffffffffffffffffffffffffffffff1602179055508173ffffffffffffffffffffffffffffffffffffffff168173ffffffffffffffffffffffffffffffffffffffff167f8be0079c531659141344cd1fd0a4f28419497f9722a3daafe3b4186f6b6457e060405160405180910390a35050565b600081519050610170816101e3565b92915050565b60006020828403121561018857600080fd5b600061019684828501610161565b91505092915050565b60006101aa826101c3565b9050919050565b60006101bc8261019f565b9050919050565b600073ffffffffffffffffffffffffffffffffffffffff82169050919050565b6101ec816101b1565b81146101f757600080fd5b50565b6109aa806102096000396000f3fe608060405234801561001057600080fd5b506004361061007d5760003560e01c8063715018a61161005b578063715018a6146100ec5780638da5cb5b146100f6578063978d4e7e14610114578063f2fde38b146101305761007d565b806311df9995146100825780632fdae193146100a05780633e5beab9146100bc575b600080fd5b61008a61014c565b6040516100979190610718565b60405180910390f35b6100ba60048036038101906100b591906105d9565b610172565b005b6100d660048036038101906100d191906105b0565b6101c2565b6040516100e39190610793565b60405180910390f35b6100f46101da565b005b6100fe6101ee565b60405161010b91906106d4565b60405180910390f35b61012e600480360381019061012991906105d9565b610217565b005b61014a600480360381019061014591906105b0565b6103a3565b005b600160009054906101000a900473ffffffffffffffffffffffffffffffffffffffff1681565b61017a610427565b80600260008473ffffffffffffffffffffffffffffffffffffffff1673ffffffffffffffffffffffffffffffffffffffff168152602001908152602001600020819055505050565b60026020528060005260406000206000915090505481565b6101e2610427565b6101ec60006104a5565b565b60008060009054906101000a900473ffffffffffffffffffffffffffffffffffffffff16905090565b600260003373ffffffffffffffffffffffffffffffffffffffff1673ffffffffffffffffffffffffffffffffffffffff16815260200190815260200160002054811115610299576040517f08c379a000000000000000000000000000000000000000000000000000000000815260040161029090610753565b60405180910390fd5b600160009054906101000a900473ffffffffffffffffffffffffffffffffffffffff1673ffffffffffffffffffffffffffffffffffffffff1663a9059cbb83836040518363ffffffff1660e01b81526004016102f69291906106ef565b602060405180830381600087803b15801561031057600080fd5b505af1158015610324573d6000803e3d6000fd5b505050506040513d601f19601f820116820180604052508101906103489190610615565b5080600260003373ffffffffffffffffffffffffffffffffffffffff1673ffffffffffffffffffffffffffffffffffffffff168152602001908152602001600020600082825461039891906107bf565b925050819055505050565b6103ab610427565b600073ffffffffffffffffffffffffffffffffffffffff168173ffffffffffffffffffffffffffffffffffffffff16141561041b576040517f08c379a000000000000000000000000000000000000000000000000000000000815260040161041290610733565b60405180910390fd5b610424816104a5565b50565b61042f610569565b73ffffffffffffffffffffffffffffffffffffffff1661044d6101ee565b73ffffffffffffffffffffffffffffffffffffffff16146104a3576040517f08c379a000000000000000000000000000000000000000000000000000000000815260040161049a90610773565b60405180910390fd5b565b60008060009054906101000a900473ffffffffffffffffffffffffffffffffffffffff169050816000806101000a81548173ffffffffffffffffffffffffffffffffffffffff021916908373ffffffffffffffffffffffffffffffffffffffff1602179055508173ffffffffffffffffffffffffffffffffffffffff168173ffffffffffffffffffffffffffffffffffffffff167f8be0079c531659141344cd1fd0a4f28419497f9722a3daafe3b4186f6b6457e060405160405180910390a35050565b600033905090565b6000813590506105808161092f565b92915050565b60008151905061059581610946565b92915050565b6000813590506105aa8161095d565b92915050565b6000602082840312156105c257600080fd5b60006105d084828501610571565b91505092915050565b600080604083850312156105ec57600080fd5b60006105fa85828601610571565b925050602061060b8582860161059b565b9150509250929050565b60006020828403121561062757600080fd5b600061063584828501610586565b91505092915050565b610647816107f3565b82525050565b6106568161083b565b82525050565b60006106696026836107ae565b91506106748261088e565b604082019050919050565b600061068c6018836107ae565b9150610697826108dd565b602082019050919050565b60006106af6020836107ae565b91506106ba82610906565b602082019050919050565b6106ce81610831565b82525050565b60006020820190506106e9600083018461063e565b92915050565b6000604082019050610704600083018561063e565b61071160208301846106c5565b9392505050565b600060208201905061072d600083018461064d565b92915050565b6000602082019050818103600083015261074c8161065c565b9050919050565b6000602082019050818103600083015261076c8161067f565b9050919050565b6000602082019050818103600083015261078c816106a2565b9050919050565b60006020820190506107a860008301846106c5565b92915050565b600082825260208201905092915050565b60006107ca82610831565b91506107d583610831565b9250828210156107e8576107e761085f565b5b828203905092915050565b60006107fe82610811565b9050919050565b60008115159050919050565b600073ffffffffffffffffffffffffffffffffffffffff82169050919050565b6000819050919050565b60006108468261084d565b9050919050565b600061085882610811565b9050919050565b7f4e487b7100000000000000000000000000000000000000000000000000000000600052601160045260246000fd5b7f4f776e61626c653a206e6577206f776e657220697320746865207a65726f206160008201527f6464726573730000000000000000000000000000000000000000000000000000602082015250565b7f416c6c6f77616e6365206e6f742073756666696369656e740000000000000000600082015250565b7f4f776e61626c653a2063616c6c6572206973206e6f7420746865206f776e6572600082015250565b610938816107f3565b811461094357600080fd5b50565b61094f81610805565b811461095a57600080fd5b50565b61096681610831565b811461097157600080fd5b5056fea26469706673582212206e7909bf0c0b3dc51adcf09d2bac3080497af9849bc0dd5b45ea507b0f3c66f864736f6c63430008040033",
    "linkReferences": {},
    "deployedLinkReferences": {}
}